{
  "_format": "hh-sol-artifact-1",
  "contractName": "BoilerPass",
  "sourceName": "contracts/BoilerPass.sol",
  "abi": [
    {
      "inputs": [],
      "stateMutability": "nonpayable",
      "type": "constructor"
    },
    {
      "anonymous": false,
      "inputs": [
        {
          "indexed": true,
          "internalType": "address",
          "name": "owner",
          "type": "address"
        },
        {
          "indexed": true,
          "internalType": "address",
          "name": "approved",
          "type": "address"
        },
        {
          "indexed": true,
          "internalType": "uint256",
          "name": "tokenId",
          "type": "uint256"
        }
      ],
      "name": "Approval",
      "type": "event"
    },
    {
      "anonymous": false,
      "inputs": [
        {
          "indexed": true,
          "internalType": "address",
          "name": "owner",
          "type": "address"
        },
        {
          "indexed": true,
          "internalType": "address",
          "name": "operator",
          "type": "address"
        },
        {
          "indexed": false,
          "internalType": "bool",
          "name": "approved",
          "type": "bool"
        }
      ],
      "name": "ApprovalForAll",
      "type": "event"
    },
    {
      "anonymous": false,
      "inputs": [
        {
          "indexed": true,
          "internalType": "address",
          "name": "previousOwner",
          "type": "address"
        },
        {
          "indexed": true,
          "internalType": "address",
          "name": "newOwner",
          "type": "address"
        }
      ],
      "name": "OwnershipTransferred",
      "type": "event"
    },
    {
      "anonymous": false,
      "inputs": [
        {
          "indexed": true,
          "internalType": "address",
          "name": "from",
          "type": "address"
        },
        {
          "indexed": true,
          "internalType": "address",
          "name": "to",
          "type": "address"
        },
        {
          "indexed": true,
          "internalType": "uint256",
          "name": "tokenId",
          "type": "uint256"
        }
      ],
      "name": "Transfer",
      "type": "event"
    },
    {
      "inputs": [
        {
          "internalType": "string",
          "name": "eventData",
          "type": "string"
        },
        {
          "internalType": "address",
          "name": "to",
          "type": "address"
        },
        {
          "internalType": "string",
          "name": "ipfsHash",
          "type": "string"
        }
      ],
      "name": "Mint",
      "outputs": [],
      "stateMutability": "nonpayable",
      "type": "function"
    },
    {
      "inputs": [
        {
          "internalType": "address",
          "name": "to",
          "type": "address"
        },
        {
          "internalType": "uint256",
          "name": "tokenId",
          "type": "uint256"
        }
      ],
      "name": "approve",
      "outputs": [],
      "stateMutability": "nonpayable",
      "type": "function"
    },
    {
      "inputs": [
        {
          "internalType": "address",
          "name": "owner",
          "type": "address"
        }
      ],
      "name": "balanceOf",
      "outputs": [
        {
          "internalType": "uint256",
          "name": "",
          "type": "uint256"
        }
      ],
      "stateMutability": "view",
      "type": "function"
    },
    {
      "inputs": [
        {
          "internalType": "uint256",
          "name": "tokenId",
          "type": "uint256"
        }
      ],
      "name": "buy",
      "outputs": [],
      "stateMutability": "payable",
      "type": "function"
    },
    {
      "inputs": [
        {
          "internalType": "uint256",
          "name": "tokenId",
          "type": "uint256"
        }
      ],
      "name": "getApproved",
      "outputs": [
        {
          "internalType": "address",
          "name": "",
          "type": "address"
        }
      ],
      "stateMutability": "view",
      "type": "function"
    },
    {
      "inputs": [],
      "name": "getCounter",
      "outputs": [
        {
          "internalType": "uint256",
          "name": "",
          "type": "uint256"
        }
      ],
      "stateMutability": "view",
      "type": "function"
    },
    {
      "inputs": [
        {
          "internalType": "uint256[]",
          "name": "tokenIds",
          "type": "uint256[]"
        }
      ],
      "name": "getEventDataByArray",
      "outputs": [
        {
          "internalType": "string[]",
          "name": "",
          "type": "string[]"
        }
      ],
      "stateMutability": "view",
      "type": "function"
    },
    {
      "inputs": [
        {
          "internalType": "uint256",
          "name": "tokenId",
          "type": "uint256"
        }
      ],
      "name": "getEventDataByTokenId",
      "outputs": [
        {
          "internalType": "string",
          "name": "",
          "type": "string"
        }
      ],
      "stateMutability": "view",
      "type": "function"
    },
    {
      "inputs": [],
      "name": "getMarketplace",
      "outputs": [
        {
          "internalType": "uint256[]",
          "name": "",
          "type": "uint256[]"
        }
      ],
      "stateMutability": "view",
      "type": "function"
    },
    {
      "inputs": [
        {
          "internalType": "uint256[]",
          "name": "tokenIds",
          "type": "uint256[]"
        }
      ],
      "name": "getMarketplaceURI",
      "outputs": [
        {
          "internalType": "string[]",
          "name": "",
          "type": "string[]"
        }
      ],
      "stateMutability": "view",
      "type": "function"
    },
    {
      "inputs": [
        {
          "internalType": "address",
          "name": "owner",
          "type": "address"
        },
        {
          "internalType": "uint256",
          "name": "index",
          "type": "uint256"
        }
      ],
      "name": "getTokenIdByOwnerIndex",
      "outputs": [
        {
          "internalType": "uint256",
          "name": "",
          "type": "uint256"
        }
      ],
      "stateMutability": "view",
      "type": "function"
    },
    {
      "inputs": [
        {
          "internalType": "address",
          "name": "owner",
          "type": "address"
        }
      ],
      "name": "getTokensByOwner",
      "outputs": [
        {
          "internalType": "string[]",
          "name": "",
          "type": "string[]"
        }
      ],
      "stateMutability": "view",
      "type": "function"
    },
    {
      "inputs": [
        {
          "internalType": "address",
          "name": "owner",
          "type": "address"
        },
        {
          "internalType": "address",
          "name": "operator",
          "type": "address"
        }
      ],
      "name": "isApprovedForAll",
      "outputs": [
        {
          "internalType": "bool",
          "name": "",
          "type": "bool"
        }
      ],
      "stateMutability": "view",
      "type": "function"
    },
    {
      "inputs": [
        {
          "internalType": "uint256",
          "name": "tokenId",
          "type": "uint256"
        }
      ],
      "name": "list",
      "outputs": [],
      "stateMutability": "nonpayable",
      "type": "function"
    },
    {
      "inputs": [],
      "name": "name",
      "outputs": [
        {
          "internalType": "string",
          "name": "",
          "type": "string"
        }
      ],
      "stateMutability": "view",
      "type": "function"
    },
    {
      "inputs": [],
      "name": "owner",
      "outputs": [
        {
          "internalType": "address",
          "name": "",
          "type": "address"
        }
      ],
      "stateMutability": "view",
      "type": "function"
    },
    {
      "inputs": [
        {
          "internalType": "uint256",
          "name": "tokenId",
          "type": "uint256"
        }
      ],
      "name": "ownerOf",
      "outputs": [
        {
          "internalType": "address",
          "name": "",
          "type": "address"
        }
      ],
      "stateMutability": "view",
      "type": "function"
    },
    {
      "inputs": [],
      "name": "renounceOwnership",
      "outputs": [],
      "stateMutability": "nonpayable",
      "type": "function"
    },
    {
      "inputs": [
        {
          "internalType": "address",
          "name": "from",
          "type": "address"
        },
        {
          "internalType": "address",
          "name": "to",
          "type": "address"
        },
        {
          "internalType": "uint256",
          "name": "tokenId",
          "type": "uint256"
        }
      ],
      "name": "safeTransferFrom",
      "outputs": [],
      "stateMutability": "nonpayable",
      "type": "function"
    },
    {
      "inputs": [
        {
          "internalType": "address",
          "name": "from",
          "type": "address"
        },
        {
          "internalType": "address",
          "name": "to",
          "type": "address"
        },
        {
          "internalType": "uint256",
          "name": "tokenId",
          "type": "uint256"
        },
        {
          "internalType": "bytes",
          "name": "data",
          "type": "bytes"
        }
      ],
      "name": "safeTransferFrom",
      "outputs": [],
      "stateMutability": "nonpayable",
      "type": "function"
    },
    {
      "inputs": [
        {
          "internalType": "address",
          "name": "operator",
          "type": "address"
        },
        {
          "internalType": "bool",
          "name": "approved",
          "type": "bool"
        }
      ],
      "name": "setApprovalForAll",
      "outputs": [],
      "stateMutability": "nonpayable",
      "type": "function"
    },
    {
      "inputs": [
        {
          "internalType": "bytes4",
          "name": "interfaceId",
          "type": "bytes4"
        }
      ],
      "name": "supportsInterface",
      "outputs": [
        {
          "internalType": "bool",
          "name": "",
          "type": "bool"
        }
      ],
      "stateMutability": "view",
      "type": "function"
    },
    {
      "inputs": [],
      "name": "symbol",
      "outputs": [
        {
          "internalType": "string",
          "name": "",
          "type": "string"
        }
      ],
      "stateMutability": "view",
      "type": "function"
    },
    {
      "inputs": [
        {
          "internalType": "uint256",
          "name": "index",
          "type": "uint256"
        }
      ],
      "name": "tokenByIndex",
      "outputs": [
        {
          "internalType": "uint256",
          "name": "",
          "type": "uint256"
        }
      ],
      "stateMutability": "view",
      "type": "function"
    },
    {
      "inputs": [
        {
          "internalType": "address",
          "name": "owner",
          "type": "address"
        },
        {
          "internalType": "uint256",
          "name": "index",
          "type": "uint256"
        }
      ],
      "name": "tokenOfOwnerByIndex",
      "outputs": [
        {
          "internalType": "uint256",
          "name": "",
          "type": "uint256"
        }
      ],
      "stateMutability": "view",
      "type": "function"
    },
    {
      "inputs": [
        {
          "internalType": "uint256",
          "name": "tokenId",
          "type": "uint256"
        }
      ],
      "name": "tokenURI",
      "outputs": [
        {
          "internalType": "string",
          "name": "",
          "type": "string"
        }
      ],
      "stateMutability": "view",
      "type": "function"
    },
    {
      "inputs": [],
      "name": "totalSupply",
      "outputs": [
        {
          "internalType": "uint256",
          "name": "",
          "type": "uint256"
        }
      ],
      "stateMutability": "view",
      "type": "function"
    },
    {
      "inputs": [
        {
          "internalType": "address",
          "name": "from",
          "type": "address"
        },
        {
          "internalType": "address",
          "name": "to",
          "type": "address"
        },
        {
          "internalType": "uint256",
          "name": "tokenId",
          "type": "uint256"
        }
      ],
      "name": "transferFrom",
      "outputs": [],
      "stateMutability": "nonpayable",
      "type": "function"
    },
    {
      "inputs": [
        {
          "internalType": "address",
          "name": "newOwner",
          "type": "address"
        }
      ],
      "name": "transferOwnership",
      "outputs": [],
      "stateMutability": "nonpayable",
      "type": "function"
    }
  ],
  "bytecode": "0x60806040523480156200001157600080fd5b506040518060400160405280600a81526020017f426f696c657250617373000000000000000000000000000000000000000000008152506040518060400160405280600281526020017f425000000000000000000000000000000000000000000000000000000000000081525081600090816200008f919062000412565b508060019081620000a1919062000412565b505050620000c4620000b8620000ca60201b60201c565b620000d260201b60201c565b620004f9565b600033905090565b6000600b60009054906101000a900473ffffffffffffffffffffffffffffffffffffffff16905081600b60006101000a81548173ffffffffffffffffffffffffffffffffffffffff021916908373ffffffffffffffffffffffffffffffffffffffff1602179055508173ffffffffffffffffffffffffffffffffffffffff168173ffffffffffffffffffffffffffffffffffffffff167f8be0079c531659141344cd1fd0a4f28419497f9722a3daafe3b4186f6b6457e060405160405180910390a35050565b600081519050919050565b7f4e487b7100000000000000000000000000000000000000000000000000000000600052604160045260246000fd5b7f4e487b7100000000000000000000000000000000000000000000000000000000600052602260045260246000fd5b600060028204905060018216806200021a57607f821691505b60208210810362000230576200022f620001d2565b5b50919050565b60008190508160005260206000209050919050565b60006020601f8301049050919050565b600082821b905092915050565b6000600883026200029a7fffffffffffffffffffffffffffffffffffffffffffffffffffffffffffffffff826200025b565b620002a686836200025b565b95508019841693508086168417925050509392505050565b6000819050919050565b6000819050919050565b6000620002f3620002ed620002e784620002be565b620002c8565b620002be565b9050919050565b6000819050919050565b6200030f83620002d2565b620003276200031e82620002fa565b84845462000268565b825550505050565b600090565b6200033e6200032f565b6200034b81848462000304565b505050565b5b8181101562000373576200036760008262000334565b60018101905062000351565b5050565b601f821115620003c2576200038c8162000236565b62000397846200024b565b81016020851015620003a7578190505b620003bf620003b6856200024b565b83018262000350565b50505b505050565b600082821c905092915050565b6000620003e760001984600802620003c7565b1980831691505092915050565b6000620004028383620003d4565b9150826002028217905092915050565b6200041d8262000198565b67ffffffffffffffff811115620004395762000438620001a3565b5b62000445825462000201565b6200045282828562000377565b600060209050601f8311600181146200048a576000841562000475578287015190505b620004818582620003f4565b865550620004f1565b601f1984166200049a8662000236565b60005b82811015620004c4578489015182556001820191506020850194506020810190506200049d565b86831015620004e45784890151620004e0601f891682620003d4565b8355505b6001600288020188555050505b505050505050565b6148e780620005096000396000f3fe6080604052600436106101c25760003560e01c806370a08231116100f7578063abd2f8c011610095578063e7c3259411610064578063e7c3259414610691578063e985e9c5146106ce578063ef98154c1461070b578063f2fde38b14610734576101c2565b8063abd2f8c0146105d2578063b88d4fde1461060f578063c87b56dd14610638578063d96a094a14610675576101c2565b80638ada066e116100d15780638ada066e146105285780638da5cb5b1461055357806395d89b411461057e578063a22cb465146105a9576101c2565b806370a08231146104ab578063715018a6146104e857806380c9419e146104ff576101c2565b806327ca2eaf1161016457806342842e0e1161013e57806342842e0e146103cb57806346b41182146103f45780634f6ccce7146104315780636352211e1461046e576101c2565b806327ca2eaf146103145780632f745c591461035157806340398d671461038e576101c2565b8063095ea7b3116101a0578063095ea7b31461026c5780630d21bcd51461029557806318160ddd146102c057806323b872dd146102eb576101c2565b806301ffc9a7146101c757806306fdde0314610204578063081812fc1461022f575b600080fd5b3480156101d357600080fd5b506101ee60048036038101906101e99190612d7e565b61075d565b6040516101fb9190612dc6565b60405180910390f35b34801561021057600080fd5b5061021961076f565b6040516102269190612e71565b60405180910390f35b34801561023b57600080fd5b5061025660048036038101906102519190612ec9565b610801565b6040516102639190612f37565b60405180910390f35b34801561027857600080fd5b50610293600480360381019061028e9190612f7e565b610847565b005b3480156102a157600080fd5b506102aa61095e565b6040516102b7919061307c565b60405180910390f35b3480156102cc57600080fd5b506102d56109bc565b6040516102e291906130ad565b60405180910390f35b3480156102f757600080fd5b50610312600480360381019061030d91906130c8565b6109c9565b005b34801561032057600080fd5b5061033b60048036038101906103369190612f7e565b610a29565b60405161034891906130ad565b60405180910390f35b34801561035d57600080fd5b5061037860048036038101906103739190612f7e565b610a42565b60405161038591906130ad565b60405180910390f35b34801561039a57600080fd5b506103b560048036038101906103b0919061311b565b610ae7565b6040516103c29190613254565b60405180910390f35b3480156103d757600080fd5b506103f260048036038101906103ed91906130c8565b610ba1565b005b34801561040057600080fd5b5061041b600480360381019061041691906133be565b610bc1565b6040516104289190613254565b60405180910390f35b34801561043d57600080fd5b5061045860048036038101906104539190612ec9565b610c7e565b60405161046591906130ad565b60405180910390f35b34801561047a57600080fd5b5061049560048036038101906104909190612ec9565b610cef565b6040516104a29190612f37565b60405180910390f35b3480156104b757600080fd5b506104d260048036038101906104cd919061311b565b610d75565b6040516104df91906130ad565b60405180910390f35b3480156104f457600080fd5b506104fd610e2c565b005b34801561050b57600080fd5b5061052660048036038101906105219190612ec9565b610e40565b005b34801561053457600080fd5b5061053d610f2a565b60405161054a91906130ad565b60405180910390f35b34801561055f57600080fd5b50610568610f3b565b6040516105759190612f37565b60405180910390f35b34801561058a57600080fd5b50610593610f65565b6040516105a09190612e71565b60405180910390f35b3480156105b557600080fd5b506105d060048036038101906105cb9190613433565b610ff7565b005b3480156105de57600080fd5b506105f960048036038101906105f49190612ec9565b61100d565b6040516106069190612e71565b60405180910390f35b34801561061b57600080fd5b5061063660048036038101906106319190613528565b6110fd565b005b34801561064457600080fd5b5061065f600480360381019061065a9190612ec9565b61115f565b60405161066c9190612e71565b60405180910390f35b61068f600480360381019061068a9190612ec9565b611171565b005b34801561069d57600080fd5b506106b860048036038101906106b391906133be565b6112ab565b6040516106c59190613254565b60405180910390f35b3480156106da57600080fd5b506106f560048036038101906106f091906135ab565b611368565b6040516107029190612dc6565b60405180910390f35b34801561071757600080fd5b50610732600480360381019061072d9190613646565b6113fc565b005b34801561074057600080fd5b5061075b6004803603810190610756919061311b565b6114c8565b005b60006107688261154b565b9050919050565b60606000805461077e9061370a565b80601f01602080910402602001604051908101604052809291908181526020018280546107aa9061370a565b80156107f75780601f106107cc576101008083540402835291602001916107f7565b820191906000526020600020905b8154815290600101906020018083116107da57829003601f168201915b5050505050905090565b600061080c826115c5565b6004600083815260200190815260200160002060009054906101000a900473ffffffffffffffffffffffffffffffffffffffff169050919050565b600061085282610cef565b90508073ffffffffffffffffffffffffffffffffffffffff168373ffffffffffffffffffffffffffffffffffffffff16036108c2576040517f08c379a00000000000000000000000000000000000000000000000000000000081526004016108b9906137ad565b60405180910390fd5b8073ffffffffffffffffffffffffffffffffffffffff166108e1611610565b73ffffffffffffffffffffffffffffffffffffffff161480610910575061090f8161090a611610565b611368565b5b61094f576040517f08c379a00000000000000000000000000000000000000000000000000000000081526004016109469061383f565b60405180910390fd5b6109598383611618565b505050565b60606000600d8054806020026020016040519081016040528092919081815260200182805480156109ae57602002820191906000526020600020905b81548152602001906001019080831161099a575b505050505090508091505090565b6000600880549050905090565b6109da6109d4611610565b826116d1565b610a19576040517f08c379a0000000000000000000000000000000000000000000000000000000008152600401610a10906138d1565b60405180910390fd5b610a24838383611766565b505050565b600080610a368484610a42565b90508091505092915050565b6000610a4d83610d75565b8210610a8e576040517f08c379a0000000000000000000000000000000000000000000000000000000008152600401610a8590613963565b60405180910390fd5b600660008473ffffffffffffffffffffffffffffffffffffffff1673ffffffffffffffffffffffffffffffffffffffff168152602001908152602001600020600083815260200190815260200160002054905092915050565b60606000610af483610d75565b905060008167ffffffffffffffff811115610b1257610b1161327b565b5b604051908082528060200260200182016040528015610b4557816020015b6060815260200190600190039081610b305790505b50905060005b82811015610b9657610b65610b608683610a42565b61115f565b828281518110610b7857610b77613983565b5b60200260200101819052508080610b8e906139e1565b915050610b4b565b508092505050919050565b610bbc838383604051806020016040528060008152506110fd565b505050565b60606000825167ffffffffffffffff811115610be057610bdf61327b565b5b604051908082528060200260200182016040528015610c1357816020015b6060815260200190600190039081610bfe5790505b50905060005b8351811015610c7457610c45848281518110610c3857610c37613983565b5b602002602001015161100d565b828281518110610c5857610c57613983565b5b602002602001018190525080610c6d906139e1565b9050610c19565b5080915050919050565b6000610c886109bc565b8210610cc9576040517f08c379a0000000000000000000000000000000000000000000000000000000008152600401610cc090613a9b565b60405180910390fd5b60088281548110610cdd57610cdc613983565b5b90600052602060002001549050919050565b600080610cfb83611a5f565b9050600073ffffffffffffffffffffffffffffffffffffffff168173ffffffffffffffffffffffffffffffffffffffff1603610d6c576040517f08c379a0000000000000000000000000000000000000000000000000000000008152600401610d6390613b07565b60405180910390fd5b80915050919050565b60008073ffffffffffffffffffffffffffffffffffffffff168273ffffffffffffffffffffffffffffffffffffffff1603610de5576040517f08c379a0000000000000000000000000000000000000000000000000000000008152600401610ddc90613b99565b60405180910390fd5b600360008373ffffffffffffffffffffffffffffffffffffffff1673ffffffffffffffffffffffffffffffffffffffff168152602001908152602001600020549050919050565b610e34611a9c565b610e3e6000611b1a565b565b610e4981611be0565b610e88576040517f08c379a0000000000000000000000000000000000000000000000000000000008152600401610e7f90613c05565b60405180910390fd5b3373ffffffffffffffffffffffffffffffffffffffff16610ea882610cef565b73ffffffffffffffffffffffffffffffffffffffff1614610efe576040517f08c379a0000000000000000000000000000000000000000000000000000000008152600401610ef590613c71565b60405180910390fd5b600d81908060018154018082558091505060019003906000526020600020016000909190919091505550565b6000610f36600e611c21565b905090565b6000600b60009054906101000a900473ffffffffffffffffffffffffffffffffffffffff16905090565b606060018054610f749061370a565b80601f0160208091040260200160405190810160405280929190818152602001828054610fa09061370a565b8015610fed5780601f10610fc257610100808354040283529160200191610fed565b820191906000526020600020905b815481529060010190602001808311610fd057829003601f168201915b5050505050905090565b611009611002611610565b8383611c2f565b5050565b6060611019600e611c21565b821061105a576040517f08c379a000000000000000000000000000000000000000000000000000000000815260040161105190613cdd565b60405180910390fd5b600c600083815260200190815260200160002080546110789061370a565b80601f01602080910402602001604051908101604052809291908181526020018280546110a49061370a565b80156110f15780601f106110c6576101008083540402835291602001916110f1565b820191906000526020600020905b8154815290600101906020018083116110d457829003601f168201915b50505050509050919050565b61110e611108611610565b836116d1565b61114d576040517f08c379a0000000000000000000000000000000000000000000000000000000008152600401611144906138d1565b60405180910390fd5b61115984848484611d9b565b50505050565b606061116a82611df7565b9050919050565b60013410156111b5576040517f08c379a00000000000000000000000000000000000000000000000000000000081526004016111ac90613d49565b60405180910390fd5b60006111c082610cef565b90508073ffffffffffffffffffffffffffffffffffffffff166108fc349081150290604051600060405180830381858888f19350505050611236576040517f08c379a000000000000000000000000000000000000000000000000000000000815260040161122d90613db5565b60405180910390fd5b61123f82611f09565b1561126c5761126761125083610cef565b338460405180602001604052806000815250611d9b565b6112a7565b6040517f08c379a000000000000000000000000000000000000000000000000000000000815260040161129e90613e47565b60405180910390fd5b5050565b60606000825167ffffffffffffffff8111156112ca576112c961327b565b5b6040519080825280602002602001820160405280156112fd57816020015b60608152602001906001900390816112e85790505b50905060005b835181101561135e5761132f84828151811061132257611321613983565b5b602002602001015161115f565b82828151811061134257611341613983565b5b602002602001018190525080611357906139e1565b9050611303565b5080915050919050565b6000600560008473ffffffffffffffffffffffffffffffffffffffff1673ffffffffffffffffffffffffffffffffffffffff16815260200190815260200160002060008373ffffffffffffffffffffffffffffffffffffffff1673ffffffffffffffffffffffffffffffffffffffff16815260200190815260200160002060009054906101000a900460ff16905092915050565b611404611a9c565b6000611410600e611c21565b905061141c600e611fe1565b6114268482611ff7565b6114748184848080601f016020809104026020016040519081016040528093929190818152602001838380828437600081840152601f19601f82011690508083019250505050505050612015565b8585600c6000848152602001908152602001600020918261149692919061401e565b50600d819080600181540180825580915050600190039060005260206000200160009091909190915055505050505050565b6114d0611a9c565b600073ffffffffffffffffffffffffffffffffffffffff168173ffffffffffffffffffffffffffffffffffffffff160361153f576040517f08c379a000000000000000000000000000000000000000000000000000000000815260040161153690614160565b60405180910390fd5b61154881611b1a565b50565b60007f780e9d63000000000000000000000000000000000000000000000000000000007bffffffffffffffffffffffffffffffffffffffffffffffffffffffff1916827bffffffffffffffffffffffffffffffffffffffffffffffffffffffff191614806115be57506115bd82612082565b5b9050919050565b6115ce81611be0565b61160d576040517f08c379a000000000000000000000000000000000000000000000000000000000815260040161160490613b07565b60405180910390fd5b50565b600033905090565b816004600083815260200190815260200160002060006101000a81548173ffffffffffffffffffffffffffffffffffffffff021916908373ffffffffffffffffffffffffffffffffffffffff160217905550808273ffffffffffffffffffffffffffffffffffffffff1661168b83610cef565b73ffffffffffffffffffffffffffffffffffffffff167f8c5be1e5ebec7d5bd14f71427d1e84f3dd0314c0f7b2291e5b200ac8c7c3b92560405160405180910390a45050565b6000806116dd83610cef565b90508073ffffffffffffffffffffffffffffffffffffffff168473ffffffffffffffffffffffffffffffffffffffff16148061171f575061171e8185611368565b5b8061175d57508373ffffffffffffffffffffffffffffffffffffffff1661174584610801565b73ffffffffffffffffffffffffffffffffffffffff16145b91505092915050565b8273ffffffffffffffffffffffffffffffffffffffff1661178682610cef565b73ffffffffffffffffffffffffffffffffffffffff16146117dc576040517f08c379a00000000000000000000000000000000000000000000000000000000081526004016117d3906141f2565b60405180910390fd5b600073ffffffffffffffffffffffffffffffffffffffff168273ffffffffffffffffffffffffffffffffffffffff160361184b576040517f08c379a000000000000000000000000000000000000000000000000000000000815260040161184290614284565b60405180910390fd5b6118588383836001612164565b8273ffffffffffffffffffffffffffffffffffffffff1661187882610cef565b73ffffffffffffffffffffffffffffffffffffffff16146118ce576040517f08c379a00000000000000000000000000000000000000000000000000000000081526004016118c5906141f2565b60405180910390fd5b6004600082815260200190815260200160002060006101000a81549073ffffffffffffffffffffffffffffffffffffffff02191690556001600360008573ffffffffffffffffffffffffffffffffffffffff1673ffffffffffffffffffffffffffffffffffffffff168152602001908152602001600020600082825403925050819055506001600360008473ffffffffffffffffffffffffffffffffffffffff1673ffffffffffffffffffffffffffffffffffffffff16815260200190815260200160002060008282540192505081905550816002600083815260200190815260200160002060006101000a81548173ffffffffffffffffffffffffffffffffffffffff021916908373ffffffffffffffffffffffffffffffffffffffff160217905550808273ffffffffffffffffffffffffffffffffffffffff168473ffffffffffffffffffffffffffffffffffffffff167fddf252ad1be2c89b69c2b068fc378daa952ba7f163c4a11628f55a4df523b3ef60405160405180910390a4611a5a8383836001612176565b505050565b60006002600083815260200190815260200160002060009054906101000a900473ffffffffffffffffffffffffffffffffffffffff169050919050565b611aa4611610565b73ffffffffffffffffffffffffffffffffffffffff16611ac2610f3b565b73ffffffffffffffffffffffffffffffffffffffff1614611b18576040517f08c379a0000000000000000000000000000000000000000000000000000000008152600401611b0f906142f0565b60405180910390fd5b565b6000600b60009054906101000a900473ffffffffffffffffffffffffffffffffffffffff16905081600b60006101000a81548173ffffffffffffffffffffffffffffffffffffffff021916908373ffffffffffffffffffffffffffffffffffffffff1602179055508173ffffffffffffffffffffffffffffffffffffffff168173ffffffffffffffffffffffffffffffffffffffff167f8be0079c531659141344cd1fd0a4f28419497f9722a3daafe3b4186f6b6457e060405160405180910390a35050565b60008073ffffffffffffffffffffffffffffffffffffffff16611c0283611a5f565b73ffffffffffffffffffffffffffffffffffffffff1614159050919050565b600081600001549050919050565b8173ffffffffffffffffffffffffffffffffffffffff168373ffffffffffffffffffffffffffffffffffffffff1603611c9d576040517f08c379a0000000000000000000000000000000000000000000000000000000008152600401611c949061435c565b60405180910390fd5b80600560008573ffffffffffffffffffffffffffffffffffffffff1673ffffffffffffffffffffffffffffffffffffffff16815260200190815260200160002060008473ffffffffffffffffffffffffffffffffffffffff1673ffffffffffffffffffffffffffffffffffffffff16815260200190815260200160002060006101000a81548160ff0219169083151502179055508173ffffffffffffffffffffffffffffffffffffffff168373ffffffffffffffffffffffffffffffffffffffff167f17307eab39ab6107e8899845ad3d59bd9653f200f220920489ca2b5937696c3183604051611d8e9190612dc6565b60405180910390a3505050565b611da6848484611766565b611db28484848461217c565b611df1576040517f08c379a0000000000000000000000000000000000000000000000000000000008152600401611de8906143ee565b60405180910390fd5b50505050565b6060611e02826115c5565b6000600a60008481526020019081526020016000208054611e229061370a565b80601f0160208091040260200160405190810160405280929190818152602001828054611e4e9061370a565b8015611e9b5780601f10611e7057610100808354040283529160200191611e9b565b820191906000526020600020905b815481529060010190602001808311611e7e57829003601f168201915b505050505090506000611eac612303565b90506000815103611ec1578192505050611f04565b600082511115611ef6578082604051602001611ede92919061444a565b60405160208183030381529060405292505050611f04565b611eff8461231a565b925050505b919050565b6000805b600d80549050811015611fd65782600d8281548110611f2f57611f2e613983565b5b906000526020600020015403611fc357600d6001600d80549050611f53919061446e565b81548110611f6457611f63613983565b5b9060005260206000200154600d8281548110611f8357611f82613983565b5b9060005260206000200181905550600d805480611fa357611fa26144a2565b5b600190038181906000526020600020016000905590556001915050611fdc565b8080611fce906139e1565b915050611f0d565b50600090505b919050565b6001816000016000828254019250508190555050565b612011828260405180602001604052806000815250612382565b5050565b61201e82611be0565b61205d576040517f08c379a000000000000000000000000000000000000000000000000000000000815260040161205490614543565b60405180910390fd5b80600a6000848152602001908152602001600020908161207d9190614563565b505050565b60007f80ac58cd000000000000000000000000000000000000000000000000000000007bffffffffffffffffffffffffffffffffffffffffffffffffffffffff1916827bffffffffffffffffffffffffffffffffffffffffffffffffffffffff1916148061214d57507f5b5e139f000000000000000000000000000000000000000000000000000000007bffffffffffffffffffffffffffffffffffffffffffffffffffffffff1916827bffffffffffffffffffffffffffffffffffffffffffffffffffffffff1916145b8061215d575061215c826123dd565b5b9050919050565b61217084848484612447565b50505050565b50505050565b600061219d8473ffffffffffffffffffffffffffffffffffffffff166125a5565b156122f6578373ffffffffffffffffffffffffffffffffffffffff1663150b7a026121c6611610565b8786866040518563ffffffff1660e01b81526004016121e8949392919061468a565b6020604051808303816000875af192505050801561222457506040513d601f19601f8201168201806040525081019061222191906146eb565b60015b6122a6573d8060008114612254576040519150601f19603f3d011682016040523d82523d6000602084013e612259565b606091505b50600081510361229e576040517f08c379a0000000000000000000000000000000000000000000000000000000008152600401612295906143ee565b60405180910390fd5b805181602001fd5b63150b7a0260e01b7bffffffffffffffffffffffffffffffffffffffffffffffffffffffff1916817bffffffffffffffffffffffffffffffffffffffffffffffffffffffff1916149150506122fb565b600190505b949350505050565b606060405180602001604052806000815250905090565b6060612325826115c5565b600061232f612303565b9050600081511161234f576040518060200160405280600081525061237a565b80612359846125c8565b60405160200161236a92919061444a565b6040516020818303038152906040525b915050919050565b61238c8383612696565b612399600084848461217c565b6123d8576040517f08c379a00000000000000000000000000000000000000000000000000000000081526004016123cf906143ee565b60405180910390fd5b505050565b60007f01ffc9a7000000000000000000000000000000000000000000000000000000007bffffffffffffffffffffffffffffffffffffffffffffffffffffffff1916827bffffffffffffffffffffffffffffffffffffffffffffffffffffffff1916149050919050565b612453848484846128b3565b6001811115612497576040517f08c379a000000000000000000000000000000000000000000000000000000000815260040161248e9061478a565b60405180910390fd5b6000829050600073ffffffffffffffffffffffffffffffffffffffff168573ffffffffffffffffffffffffffffffffffffffff16036124de576124d9816128b9565b61251d565b8373ffffffffffffffffffffffffffffffffffffffff168573ffffffffffffffffffffffffffffffffffffffff161461251c5761251b8582612902565b5b5b600073ffffffffffffffffffffffffffffffffffffffff168473ffffffffffffffffffffffffffffffffffffffff160361255f5761255a81612a6f565b61259e565b8473ffffffffffffffffffffffffffffffffffffffff168473ffffffffffffffffffffffffffffffffffffffff161461259d5761259c8482612b40565b5b5b5050505050565b6000808273ffffffffffffffffffffffffffffffffffffffff163b119050919050565b6060600060016125d784612bbf565b01905060008167ffffffffffffffff8111156125f6576125f561327b565b5b6040519080825280601f01601f1916602001820160405280156126285781602001600182028036833780820191505090505b509050600082602001820190505b60011561268b578080600190039150507f3031323334353637383961626364656600000000000000000000000000000000600a86061a8153600a858161267f5761267e6147aa565b5b04945060008503612636575b819350505050919050565b600073ffffffffffffffffffffffffffffffffffffffff168273ffffffffffffffffffffffffffffffffffffffff1603612705576040517f08c379a00000000000000000000000000000000000000000000000000000000081526004016126fc90614825565b60405180910390fd5b61270e81611be0565b1561274e576040517f08c379a000000000000000000000000000000000000000000000000000000000815260040161274590614891565b60405180910390fd5b61275c600083836001612164565b61276581611be0565b156127a5576040517f08c379a000000000000000000000000000000000000000000000000000000000815260040161279c90614891565b60405180910390fd5b6001600360008473ffffffffffffffffffffffffffffffffffffffff1673ffffffffffffffffffffffffffffffffffffffff16815260200190815260200160002060008282540192505081905550816002600083815260200190815260200160002060006101000a81548173ffffffffffffffffffffffffffffffffffffffff021916908373ffffffffffffffffffffffffffffffffffffffff160217905550808273ffffffffffffffffffffffffffffffffffffffff16600073ffffffffffffffffffffffffffffffffffffffff167fddf252ad1be2c89b69c2b068fc378daa952ba7f163c4a11628f55a4df523b3ef60405160405180910390a46128af600083836001612176565b5050565b50505050565b6008805490506009600083815260200190815260200160002081905550600881908060018154018082558091505060019003906000526020600020016000909190919091505550565b6000600161290f84610d75565b612919919061446e565b90506000600760008481526020019081526020016000205490508181146129fe576000600660008673ffffffffffffffffffffffffffffffffffffffff1673ffffffffffffffffffffffffffffffffffffffff168152602001908152602001600020600084815260200190815260200160002054905080600660008773ffffffffffffffffffffffffffffffffffffffff1673ffffffffffffffffffffffffffffffffffffffff168152602001908152602001600020600084815260200190815260200160002081905550816007600083815260200190815260200160002081905550505b6007600084815260200190815260200160002060009055600660008573ffffffffffffffffffffffffffffffffffffffff1673ffffffffffffffffffffffffffffffffffffffff16815260200190815260200160002060008381526020019081526020016000206000905550505050565b60006001600880549050612a83919061446e565b9050600060096000848152602001908152602001600020549050600060088381548110612ab357612ab2613983565b5b906000526020600020015490508060088381548110612ad557612ad4613983565b5b906000526020600020018190555081600960008381526020019081526020016000208190555060096000858152602001908152602001600020600090556008805480612b2457612b236144a2565b5b6001900381819060005260206000200160009055905550505050565b6000612b4b83610d75565b905081600660008573ffffffffffffffffffffffffffffffffffffffff1673ffffffffffffffffffffffffffffffffffffffff168152602001908152602001600020600083815260200190815260200160002081905550806007600084815260200190815260200160002081905550505050565b600080600090507a184f03e93ff9f4daa797ed6e38ed64bf6a1f0100000000000000008310612c1d577a184f03e93ff9f4daa797ed6e38ed64bf6a1f0100000000000000008381612c1357612c126147aa565b5b0492506040810190505b6d04ee2d6d415b85acef81000000008310612c5a576d04ee2d6d415b85acef81000000008381612c5057612c4f6147aa565b5b0492506020810190505b662386f26fc100008310612c8957662386f26fc100008381612c7f57612c7e6147aa565b5b0492506010810190505b6305f5e1008310612cb2576305f5e1008381612ca857612ca76147aa565b5b0492506008810190505b6127108310612cd7576127108381612ccd57612ccc6147aa565b5b0492506004810190505b60648310612cfa5760648381612cf057612cef6147aa565b5b0492506002810190505b600a8310612d09576001810190505b80915050919050565b6000604051905090565b600080fd5b600080fd5b60007fffffffff0000000000000000000000000000000000000000000000000000000082169050919050565b612d5b81612d26565b8114612d6657600080fd5b50565b600081359050612d7881612d52565b92915050565b600060208284031215612d9457612d93612d1c565b5b6000612da284828501612d69565b91505092915050565b60008115159050919050565b612dc081612dab565b82525050565b6000602082019050612ddb6000830184612db7565b92915050565b600081519050919050565b600082825260208201905092915050565b60005b83811015612e1b578082015181840152602081019050612e00565b60008484015250505050565b6000601f19601f8301169050919050565b6000612e4382612de1565b612e4d8185612dec565b9350612e5d818560208601612dfd565b612e6681612e27565b840191505092915050565b60006020820190508181036000830152612e8b8184612e38565b905092915050565b6000819050919050565b612ea681612e93565b8114612eb157600080fd5b50565b600081359050612ec381612e9d565b92915050565b600060208284031215612edf57612ede612d1c565b5b6000612eed84828501612eb4565b91505092915050565b600073ffffffffffffffffffffffffffffffffffffffff82169050919050565b6000612f2182612ef6565b9050919050565b612f3181612f16565b82525050565b6000602082019050612f4c6000830184612f28565b92915050565b612f5b81612f16565b8114612f6657600080fd5b50565b600081359050612f7881612f52565b92915050565b60008060408385031215612f9557612f94612d1c565b5b6000612fa385828601612f69565b9250506020612fb485828601612eb4565b9150509250929050565b600081519050919050565b600082825260208201905092915050565b6000819050602082019050919050565b612ff381612e93565b82525050565b60006130058383612fea565b60208301905092915050565b6000602082019050919050565b600061302982612fbe565b6130338185612fc9565b935061303e83612fda565b8060005b8381101561306f5781516130568882612ff9565b975061306183613011565b925050600181019050613042565b5085935050505092915050565b60006020820190508181036000830152613096818461301e565b905092915050565b6130a781612e93565b82525050565b60006020820190506130c2600083018461309e565b92915050565b6000806000606084860312156130e1576130e0612d1c565b5b60006130ef86828701612f69565b935050602061310086828701612f69565b925050604061311186828701612eb4565b9150509250925092565b60006020828403121561313157613130612d1c565b5b600061313f84828501612f69565b91505092915050565b600081519050919050565b600082825260208201905092915050565b6000819050602082019050919050565b600082825260208201905092915050565b600061319082612de1565b61319a8185613174565b93506131aa818560208601612dfd565b6131b381612e27565b840191505092915050565b60006131ca8383613185565b905092915050565b6000602082019050919050565b60006131ea82613148565b6131f48185613153565b93508360208202850161320685613164565b8060005b85811015613242578484038952815161322385826131be565b945061322e836131d2565b925060208a0199505060018101905061320a565b50829750879550505050505092915050565b6000602082019050818103600083015261326e81846131df565b905092915050565b600080fd5b7f4e487b7100000000000000000000000000000000000000000000000000000000600052604160045260246000fd5b6132b382612e27565b810181811067ffffffffffffffff821117156132d2576132d161327b565b5b80604052505050565b60006132e5612d12565b90506132f182826132aa565b919050565b600067ffffffffffffffff8211156133115761331061327b565b5b602082029050602081019050919050565b600080fd5b600061333a613335846132f6565b6132db565b9050808382526020820190506020840283018581111561335d5761335c613322565b5b835b8181101561338657806133728882612eb4565b84526020840193505060208101905061335f565b5050509392505050565b600082601f8301126133a5576133a4613276565b5b81356133b5848260208601613327565b91505092915050565b6000602082840312156133d4576133d3612d1c565b5b600082013567ffffffffffffffff8111156133f2576133f1612d21565b5b6133fe84828501613390565b91505092915050565b61341081612dab565b811461341b57600080fd5b50565b60008135905061342d81613407565b92915050565b6000806040838503121561344a57613449612d1c565b5b600061345885828601612f69565b92505060206134698582860161341e565b9150509250929050565b600080fd5b600067ffffffffffffffff8211156134935761349261327b565b5b61349c82612e27565b9050602081019050919050565b82818337600083830152505050565b60006134cb6134c684613478565b6132db565b9050828152602081018484840111156134e7576134e6613473565b5b6134f28482856134a9565b509392505050565b600082601f83011261350f5761350e613276565b5b813561351f8482602086016134b8565b91505092915050565b6000806000806080858703121561354257613541612d1c565b5b600061355087828801612f69565b945050602061356187828801612f69565b935050604061357287828801612eb4565b925050606085013567ffffffffffffffff81111561359357613592612d21565b5b61359f878288016134fa565b91505092959194509250565b600080604083850312156135c2576135c1612d1c565b5b60006135d085828601612f69565b92505060206135e185828601612f69565b9150509250929050565b600080fd5b60008083601f84011261360657613605613276565b5b8235905067ffffffffffffffff811115613623576136226135eb565b5b60208301915083600182028301111561363f5761363e613322565b5b9250929050565b60008060008060006060868803121561366257613661612d1c565b5b600086013567ffffffffffffffff8111156136805761367f612d21565b5b61368c888289016135f0565b9550955050602061369f88828901612f69565b935050604086013567ffffffffffffffff8111156136c0576136bf612d21565b5b6136cc888289016135f0565b92509250509295509295909350565b7f4e487b7100000000000000000000000000000000000000000000000000000000600052602260045260246000fd5b6000600282049050600182168061372257607f821691505b602082108103613735576137346136db565b5b50919050565b7f4552433732313a20617070726f76616c20746f2063757272656e74206f776e6560008201527f7200000000000000000000000000000000000000000000000000000000000000602082015250565b6000613797602183612dec565b91506137a28261373b565b604082019050919050565b600060208201905081810360008301526137c68161378a565b9050919050565b7f4552433732313a20617070726f76652063616c6c6572206973206e6f7420746f60008201527f6b656e206f776e6572206f7220617070726f76656420666f7220616c6c000000602082015250565b6000613829603d83612dec565b9150613834826137cd565b604082019050919050565b600060208201905081810360008301526138588161381c565b9050919050565b7f4552433732313a2063616c6c6572206973206e6f7420746f6b656e206f776e6560008201527f72206f7220617070726f76656400000000000000000000000000000000000000602082015250565b60006138bb602d83612dec565b91506138c68261385f565b604082019050919050565b600060208201905081810360008301526138ea816138ae565b9050919050565b7f455243373231456e756d657261626c653a206f776e657220696e646578206f7560008201527f74206f6620626f756e6473000000000000000000000000000000000000000000602082015250565b600061394d602b83612dec565b9150613958826138f1565b604082019050919050565b6000602082019050818103600083015261397c81613940565b9050919050565b7f4e487b7100000000000000000000000000000000000000000000000000000000600052603260045260246000fd5b7f4e487b7100000000000000000000000000000000000000000000000000000000600052601160045260246000fd5b60006139ec82612e93565b91507fffffffffffffffffffffffffffffffffffffffffffffffffffffffffffffffff8203613a1e57613a1d6139b2565b5b600182019050919050565b7f455243373231456e756d657261626c653a20676c6f62616c20696e646578206f60008201527f7574206f6620626f756e64730000000000000000000000000000000000000000602082015250565b6000613a85602c83612dec565b9150613a9082613a29565b604082019050919050565b60006020820190508181036000830152613ab481613a78565b9050919050565b7f4552433732313a20696e76616c696420746f6b656e2049440000000000000000600082015250565b6000613af1601883612dec565b9150613afc82613abb565b602082019050919050565b60006020820190508181036000830152613b2081613ae4565b9050919050565b7f4552433732313a2061646472657373207a65726f206973206e6f74206120766160008201527f6c6964206f776e65720000000000000000000000000000000000000000000000602082015250565b6000613b83602983612dec565b9150613b8e82613b27565b604082019050919050565b60006020820190508181036000830152613bb281613b76565b9050919050565b7f546f6b656e20646f65736e2774206578697374732e0000000000000000000000600082015250565b6000613bef601583612dec565b9150613bfa82613bb9565b602082019050919050565b60006020820190508181036000830152613c1e81613be2565b9050919050565b7f596f7520617265206e6f7420746865206f776e65720000000000000000000000600082015250565b6000613c5b601583612dec565b9150613c6682613c25565b602082019050919050565b60006020820190508181036000830152613c8a81613c4e565b9050919050565b7f696e76616c696420696400000000000000000000000000000000000000000000600082015250565b6000613cc7600a83612dec565b9150613cd282613c91565b602082019050919050565b60006020820190508181036000830152613cf681613cba565b9050919050565b7f496e73756666696369656e742066756e64732e00000000000000000000000000600082015250565b6000613d33601383612dec565b9150613d3e82613cfd565b602082019050919050565b60006020820190508181036000830152613d6281613d26565b9050919050565b7f556e61626c6520746f2073656e64000000000000000000000000000000000000600082015250565b6000613d9f600e83612dec565b9150613daa82613d69565b602082019050919050565b60006020820190508181036000830152613dce81613d92565b9050919050565b7f54686520746f6b656e494420796f7520747269656420746f206275792069732060008201527f696e76616c696400000000000000000000000000000000000000000000000000602082015250565b6000613e31602783612dec565b9150613e3c82613dd5565b604082019050919050565b60006020820190508181036000830152613e6081613e24565b9050919050565b600082905092915050565b60008190508160005260206000209050919050565b60006020601f8301049050919050565b600082821b905092915050565b600060088302613ed47fffffffffffffffffffffffffffffffffffffffffffffffffffffffffffffffff82613e97565b613ede8683613e97565b95508019841693508086168417925050509392505050565b6000819050919050565b6000613f1b613f16613f1184612e93565b613ef6565b612e93565b9050919050565b6000819050919050565b613f3583613f00565b613f49613f4182613f22565b848454613ea4565b825550505050565b600090565b613f5e613f51565b613f69818484613f2c565b505050565b5b81811015613f8d57613f82600082613f56565b600181019050613f6f565b5050565b601f821115613fd257613fa381613e72565b613fac84613e87565b81016020851015613fbb578190505b613fcf613fc785613e87565b830182613f6e565b50505b505050565b600082821c905092915050565b6000613ff560001984600802613fd7565b1980831691505092915050565b600061400e8383613fe4565b9150826002028217905092915050565b6140288383613e67565b67ffffffffffffffff8111156140415761404061327b565b5b61404b825461370a565b614056828285613f91565b6000601f8311600181146140855760008415614073578287013590505b61407d8582614002565b8655506140e5565b601f19841661409386613e72565b60005b828110156140bb57848901358255600182019150602085019450602081019050614096565b868310156140d857848901356140d4601f891682613fe4565b8355505b6001600288020188555050505b50505050505050565b7f4f776e61626c653a206e6577206f776e657220697320746865207a65726f206160008201527f6464726573730000000000000000000000000000000000000000000000000000602082015250565b600061414a602683612dec565b9150614155826140ee565b604082019050919050565b600060208201905081810360008301526141798161413d565b9050919050565b7f4552433732313a207472616e736665722066726f6d20696e636f72726563742060008201527f6f776e6572000000000000000000000000000000000000000000000000000000602082015250565b60006141dc602583612dec565b91506141e782614180565b604082019050919050565b6000602082019050818103600083015261420b816141cf565b9050919050565b7f4552433732313a207472616e7366657220746f20746865207a65726f2061646460008201527f7265737300000000000000000000000000000000000000000000000000000000602082015250565b600061426e602483612dec565b915061427982614212565b604082019050919050565b6000602082019050818103600083015261429d81614261565b9050919050565b7f4f776e61626c653a2063616c6c6572206973206e6f7420746865206f776e6572600082015250565b60006142da602083612dec565b91506142e5826142a4565b602082019050919050565b60006020820190508181036000830152614309816142cd565b9050919050565b7f4552433732313a20617070726f766520746f2063616c6c657200000000000000600082015250565b6000614346601983612dec565b915061435182614310565b602082019050919050565b6000602082019050818103600083015261437581614339565b9050919050565b7f4552433732313a207472616e7366657220746f206e6f6e20455243373231526560008201527f63656976657220696d706c656d656e7465720000000000000000000000000000602082015250565b60006143d8603283612dec565b91506143e38261437c565b604082019050919050565b60006020820190508181036000830152614407816143cb565b9050919050565b600081905092915050565b600061442482612de1565b61442e818561440e565b935061443e818560208601612dfd565b80840191505092915050565b60006144568285614419565b91506144628284614419565b91508190509392505050565b600061447982612e93565b915061448483612e93565b925082820390508181111561449c5761449b6139b2565b5b92915050565b7f4e487b7100000000000000000000000000000000000000000000000000000000600052603160045260246000fd5b7f45524337323155524953746f726167653a2055524920736574206f66206e6f6e60008201527f6578697374656e7420746f6b656e000000000000000000000000000000000000602082015250565b600061452d602e83612dec565b9150614538826144d1565b604082019050919050565b6000602082019050818103600083015261455c81614520565b9050919050565b61456c82612de1565b67ffffffffffffffff8111156145855761458461327b565b5b61458f825461370a565b61459a828285613f91565b600060209050601f8311600181146145cd57600084156145bb578287015190505b6145c58582614002565b86555061462d565b601f1984166145db86613e72565b60005b82811015614603578489015182556001820191506020850194506020810190506145de565b86831015614620578489015161461c601f891682613fe4565b8355505b6001600288020188555050505b505050505050565b600081519050919050565b600082825260208201905092915050565b600061465c82614635565b6146668185614640565b9350614676818560208601612dfd565b61467f81612e27565b840191505092915050565b600060808201905061469f6000830187612f28565b6146ac6020830186612f28565b6146b9604083018561309e565b81810360608301526146cb8184614651565b905095945050505050565b6000815190506146e581612d52565b92915050565b60006020828403121561470157614700612d1c565b5b600061470f848285016146d6565b91505092915050565b7f455243373231456e756d657261626c653a20636f6e736563757469766520747260008201527f616e7366657273206e6f7420737570706f727465640000000000000000000000602082015250565b6000614774603583612dec565b915061477f82614718565b604082019050919050565b600060208201905081810360008301526147a381614767565b9050919050565b7f4e487b7100000000000000000000000000000000000000000000000000000000600052601260045260246000fd5b7f4552433732313a206d696e7420746f20746865207a65726f2061646472657373600082015250565b600061480f602083612dec565b915061481a826147d9565b602082019050919050565b6000602082019050818103600083015261483e81614802565b9050919050565b7f4552433732313a20746f6b656e20616c7265616479206d696e74656400000000600082015250565b600061487b601c83612dec565b915061488682614845565b602082019050919050565b600060208201905081810360008301526148aa8161486e565b905091905056fea2646970667358221220e6a54fe8c72f971545726f15afab3055415c0ae6624b59bb4990aeace505c70964736f6c63430008120033",
  "linkReferences": {},
  "deployedLinkReferences": {}
}